PARTNUMBER   1XANDEND  PARTNAMEIS1411SPECNUMGBLUEPRINTNUOM002CHRMODELNAME YEAR              SUPPLIERCDTSUPPLIERNAME1  00212999999993Address-1f     Address-2f     Address3f      City           St99999999992Address-1s     Address-2s     Address3s      City           St99999999991Address-1t     Address-2t     Address3t      City           St9999999999PONumbBuy00000010000001002020082420200902PONumbBuy00000010000001002020082420200901PONumbBuy00000010000001002020082420200901
PARTNUMBER   2XANDEND  PARTNAMEIS1412SPECNUMGBLUEPRINTNUOM001CHRMODELNAME YEAR              SUPPLIERCDTSUPPLIERNAME2  00113999999992Address-1f     Address-2f     Address3f      City           St99999999993Address-1s     Address-2s     Address3s      City           St99999999991Address-1t     Address-2t     Address3t      City           St9999999999PONumbBuy00000010000001002020082420200901PONumbBuy00000010000001002020082420200901PONumbBuy00000010000001002020082420200901

PARTNUMBER   2XANDEND  PARTNAMEIS1413SPECNUMGBLUEPRINTNUOM001VW MODELNAME YEAR              SUPPLIERCDTSUPPLIERNAME3  00331999999992Address-1f     Address-2f     Address3f      City           St99999999993Address-1s     Address-2s     Address3s      City           St99999999991Address-1t     Address-2t     Address3t      City           St9999999999PONumbBuy00000010000001002020082420200901PONumbBuy00000010000001002020082420200901PONumbBuy00000010000001002020082420200901
PARTNUMBER   3XANDEND  PARTNAMEIS1414SPECNUMGBLUEPRINTNUOM001GM MODELNAME YEAR              SUPPLIERCDTSUPPLIERNAME4  00132999999992Address-1f     Address-2f     Address3f      City           St99999999993Address-1s     Address-2s     Address3s      City           St99999999991Address-1t     Address-2t     Address3t      City           St9999999999PONumbBuy00000010000001002020082420200901PONumbBuy00000010000001002020082420200901PONumbBuy00000010000001002020082420200901
PARTNUMBER   2XANDEND  PARTNAMEIS1415SPECNUMGBLUEPRINTNUOM001CHRMODELNAME YEAR              SUPPLIERCDTSUPPLIERNAME5  00333999999992Address-1f     Address-2f     Address3f      City           St99999999993Address-1s     Address-2s     Address3s      City           St99999999991Address-1t     Address-2t     Address3t      City           St9999999999PONumbBuy00000010000001002020082420200901PONumbBuy00000010000001002020082420200901PONumbBuy00000010000001002020082420200901
PARTNUMBER   2XANDEND  PARTNAMEIS1416SPECNUMGBLUEPRINTNUOM003BMWMODELNAME YEAR              SUPPLIERCDTSUPPLIERNAME6  00131999999991Address-1f     Address-2f     Address3f      City           St99999999992Address-1s     Address-2s     Address3s      City           St99999999991Address-1t     Address-2t     Address3t      City           St9999999999PONumbBuy00000010000001002020082420200901PONumbBuy00000010000001002020082420200901PONumbBuy00000010000001002020082420200901
PARTNUMBER   4XANDEND  PARTNAMEIS1417SPECNUMGBLUEPRINTNUOM009FORMODELNAME YEAR              SUPPLIERCDTSUPPLIERNAME7  00233999999992Address-1f     Address-2f     Address3f      City           St99999999993Address-1s     Address-2s     Address3s      City           St99999999991Address-1t     Address-2t     Address3t      City           St9999999999PONumbBuy00000010000001002020082420200903PONumbBuy00000010000001002020082420200901PONumbBuy00000010000001002020082420200901